:100000000C9486120C94B7120C94B7120C94B7127D
:100010000C94B7120C94B7120C94B7120C94B7123C
:100020000C94B7120C94B7120C94B7120C94B7122C
:100030000C94B7120C94B7120C94B7120C94B7121C
:100040000C94B7120C9428920C94B7120C94B7121B
:100050000C94B7120C94B7120C944AAF0C94D9B903
:100060000C94B7120C9418310C94B7120C94B7126C
:100070000C94B7120C94B7120C94B7120C94B712DC
:100080000C94B7120C94B7120C94B7120C94B712CC
:100090000C94B7120C94B7120C94B7120C94B712BC
:1000A0000C94B7120C94B7120C94B7120C94B712AC
:1000B0000C94B7120C94B7120C94B7120C94B7129C
:1000C0000C94B7120C94B7120C94B7120C94B7128C
:1000D0000C94B7120C94B7120C94B7120C94B7127C
:1000E0000C94B712F642F942E842EC42F242304335
:1000F000FD42014307430B430F43154319431D437F
:100100003043234327432B43A6AFB6AFD5AFE5AF6C
:1001100000B005B008B00DB010B015B018B01DB0EB
:1001200027B0F5B8FAB8FFB809B913B98CB91DB939
:1001300025B92DB937B941B94BB95AB964B98CB998
:100140006EB978B982B9084AD73B3BCE016E84BC00
:10015000BFFDC12F3D6C74319ABD56833DDA3D0021
:10016000C77F11BED9E4BB4C3E916BAAAABE00006A
:1001700000803F05A84CCDB2D44EB93836A9020C48
:1001800050B9918688083CA6AAAA2ABE0000008021
:100190003F004E414E494E495459494E46CDCCCC74
:1001A0003D0AD7233C17B7D13877CC2B329595E64B
:1001B000241FB14F0A000020410000C84200401C2B
:1001C0004620BCBE4CCA1B0E5AAEC59D74434F4D53
:1001D0004D554E49434154494F4E00445259525592
:1001E0004E004552524F525300494E464F00454330
:1001F000484F00536F7370656E73696F6E652E2E76
:100200002E005A206E6F7420656E74657265642EC0
:100210000A005A206E6F7420656E74657265642ED4
:100220000A0059206F7574206F662072616E6765D1
:100230002028312D33292E0A0059206E6F74206535
:100240006E74657265642E0A0058206F7574206F95
:10025000662072616E67652028312D33292E0A00D1
:1002600058206E6F7420656E74657265642E0A0086
:10027000473238004D6573682070726F62696E672F
:1002800020646F6E652E0A005374617274206D6570
:1002900073682070726F62696E6720776974682076
:1002A00022473239205331222066697273742E0A34
:1002B000004732380A473239205332002020000AE2
:1002C0004D6561737572656420706F696E74733A01
:1002D0000A000A5A206F66667365743A20000A5A4B
:1002E00020736561726368206865696768743A2085
:1002F000000A4E756D20582C593A200053746174D1
:10030000653A20004D65736820626564206C6576EF
:10031000656C696E67206E6F7420616374697665C1
:100320002E0A0053206F7574206F662072616E670D
:10033000652028302D35292E0A0046616C6C61201D
:1003400056332070726F6E746F2E00526970726532
:100350006E6469205374616D706100417474656EE0
:100360006469205574656E74652E2E004E65737336
:10037000756E204D6F76696D656E746F00456E64A5
:100380002066696C65206C6973740A004265676950
:100390006E2066696C65206C6973740A0053442092
:1003A0007072696E74696E67206279746520004EA0
:1003B0006F74205344207072696E74696E670A000E
:1003C0002569730025696D202569730025696820FA
:1003D00025696D20256973002569642025696820D9
:1003E00025696D20256973002569792025696420B8
:1003F0002569682025696D20256973005072696E32
:10040000742074696D653A200052697363616C648D
:10041000616D656E746F2E2E0046616C6C612056A6
:10042000332070726F6E746F2E00EE01E901E201ED
:10043000DB01CD016F66660044454255473A0055E1
:10044000434349534F2E20004D3131332053006F29
:100450006B0046616C6C612056332070726F6E7455
:100460006F2E0046616C6C61205633204F66662EFD
:10047000004649524D574152455F4E414D453A4D18
:1004800061726C696E20312E312E302D524337202F
:10049000284769746875622920534F555243455F58
:1004A000434F44455F55524C3A68747470733A2F09
:1004B0002F6769746875622E636F6D2F4D61726C62
:1004C000696E4669726D776172652F4D61726C69F4
:1004D0006E2050524F544F434F4C5F564552534934
:1004E0004F4E3A312E30204D414348494E455F54DE
:1004F0005950453A46616C6C61205633204558543A
:1005000052554445525F434F554E543A322055554B
:1005100049443A63656465326132662D3431613233
:100520002D343734382D396231322D633535633609
:10053000326633363766660A004D31343520533C17
:10054000696E6465783E206F7574206F66207261F5
:100550006E67652028302D31290A0053657474694F
:100560006E672054726176656C20416363656C65CB
:10057000726174696F6E3A200053657474696E67B6
:10058000205265747261637420416363656C6572A7
:100590006174696F6E3A200053657474696E6720E8
:1005A0005072696E7420416363656C657261746931
:1005B0006F6E3A200053657474696E6720507269DB
:1005C0006E7420616E642054726176656C204163A4
:1005D00063656C65726174696F6E3A200020643ADD
:1005E0000020693A0020703A0043290A0061626CD9
:1005F000656420286D696E2074656D702000436FFE
:100600006C6420657874727564657320617265200E
:10061000004F6666736574206170706C6963617405
:100620006F004572723A20546F6F2066617221002C
:10063000546F6F206661722066726F6D20726566FE
:100640006572656E636520706F696E740A00416340
:10065000746976652045787472756465723A200015
:10066000220A00556E6B6E6F776E20636F6D6D6141
:100670006E643A20220055434349534F2E200041D7
:10068000525245535441544F2E20005072696E749B
:1006900065722073746F7070656420647565207472
:1006A0006F206572726F72732E20466978207468AD
:1006B00065206572726F7220616E642075736520AB
:1006C0004D39393920746F20726573746172742EDC
:1006D000202854656D706572617475726520697348
:1006E0002072657365742E205365742069742061CF
:1006F000667465722072657374617274696E6729BD
:100700000A004E6F204C696E65204E756D626572F1
:10071000207769746820636865636B73756D2C203E
:100720004C617374204C696E653A20004E6F204313
:100730006865636B73756D2077697468206C696E8A
:1007400065206E756D6265722C204C617374204C4F
:10075000696E653A2000636865636B73756D206D23
:1007600069736D617463682C204C617374204C69EB
:100770006E653A20004C696E65204E756D6265723B
:10078000206973206E6F74204C617374204C696E05
:1007900065204E756D6265722B312C204C6173742F
:1007A000204C696E653A20004D313130004D3331B7
:1007B000004D383420582059205A204500534420F9
:1007C00072656164206572726F720A00446F6E65B3
:1007D000207072696E74696E672066696C650A00C4
:1007E00020496E76616C6964206578747275646501
:1007F0007220000000254300004343000016430020
:10080000000000000000000000000046696C652048
:1008100064656C657465643A0044656C6574696F01
:100820006E206661696C65642C2046696C653A20AF
:10083000006F70656E206661696C65642C20466986
:100840006C653A20002042403A0020403A00202FB8
:100850000020423A00202F0020543A002D2D2D2D4B
:100860002D2D007C4D61726C696E7C002D2D2D2D1F
:100870002D2D00687474703A2F2F6D61726C696E43
:1008800066772E6F726700687474703A2F2F6D61EF
:10089000726C696E66772E6F72670020312E312E72
:1008A000302D524337002020506C616E6E657242CD
:1008B000756666657242797465733A2000204672E7
:1008C0006565204D656D6F72793A20004A616E2032
:1008D000323120323031390A00436F6D70696C65F6
:1008E000643A2000286E6F6E652C20646566617521
:1008F0006C7420636F6E666967290A00207C204152
:100900007574686F723A2000323031362D30372DD1
:1009100033312031323A303000204C61737420552D
:100920007064617465643A200020312E312E302DC0
:100930005243370A004D61726C696E0020536F6636
:1009400074776172652052657365740A002057617F
:10095000746368646F672052657365740A0020428F
:10096000726F776E206F75742052657365740A001C
:100970002045787465726E616C2052657365740AE7
:1009800000506F77657255700A0073746172740A53
:10099000006572726F722077726974696E67207475
:1009A0006F2066696C650A00456E6473746F702011
:1009B000256320256320256320256300205A3A0003
:1009C00020593A0020583A00656E6473746F707352
:1009D000206869743A2000446F6E652073617669FF
:1009E0006E672066696C652E0A004D323900700111
:1009F0002C0190012701B0012201C0011D01F0016D
:100A000018011002130130020E0160020901900268
:100A10000401C002FF000003FA004003F500800358
:100A2000F000D003EB002004E6007004E100E004D5
:100A3000DC004005D700C005D2004006CD00D0063E
:100A4000C8008007C3003008BE00F008B900C00924
:100A5000B400B00AAF00B00BAA00D00CA500000E85
:100A6000A000500F9B00C01096005012910000147F
:100A70008C00C0158700B0178200B0197D00D01B14
:100A80007800001E730040206E0090226900F02460
:100A9000640040275F0090295A00E02B5500102E7B
:100AA000500020304B0010324600E03341009035BA
:100AB0003C001037370070383200A0392D00B03AB2
:100AC0002800A03B2300603C1E00103D1900903D13
:100AD0001400103E0F00703E0A00C03E0500003FAB
:100AE000000053442063617264206F6B0A006F70D2
:100AF000656E526F6F74206661696C65640A00767A
:100B00006F6C756D652E696E6974206661696C65C0
:100B1000640A004572726F723A00534420696E692C
:100B200074206661696C0A006175746F25692E67AF
:100B3000004D3234004D323320257300220A006507
:100B40006E7175657565696E672022006563686FF3
:100B50003A00253032693A25303269002D2D2D00BA
:100B60005344005A005900200020003F0058000163
:100B700020000120005374616D7061206461205376
:100B800044005344206E6F6E2070726573656E74FE
:100B9000650041727265737461207374616D706178
:100BA0000052697072656E6469207374616D706162
:100BB00000506175736100436F6E74726F6C6C6F7F
:100BC0000050726570617261005265676F6C610000
:100BD00047756172646100466C7573736F203200F3
:100BE000466C7573736F203200466C7573736F209B
:100BF0003100466C7573736F203100466C757373EA
:100C00006F00466C7573736F0056656C6F63697423
:100C1000C3A02076656E746F6C610056656C6F635F
:100C20006974C3A02076656E746F6C610050696151
:100C300074746F0050696174746F005567656C6CF3
:100C40006F005567656C6C6F0070696174746F201C
:100C50005A0070696174746F205A0056656C6F6336
:100C60006974C3A00056656C6F636974C3A0004DBE
:100C7000656E75207072696E636970616C650000E5
:100C8000002100240027002A002D0030003300013D
:100C9000010000040107010A0100002200250028CC
:100CA000002B002E00310034000201000005010875
:100CB000010B01000020002300260029002C002F3A
:100CC00000320000010000030106010901050505CD
:100CD00005070508080808020202020A0A080804B3
:100CE00004040401010101010101010303030303E1
:100CF000030303040707070C0C0C0C0C0C0C0C0270
:100D000002020206060606060606060B0B0B0B0B76
:100D10000B0B0B010210202008081020401020406F
:100D200080020102010804020101020408102040AF
:100D300080804020100804020180040201804020CD
:100D400010080402010804020101020408102040F6
:100D500080010204081020408000000A0B02090CE8
:100D60000D0E080703040100000000000000000051
:100D70000000000000000000000000000000000073
:100D80000000000000121110000000000000000030
:100D900000000000000000000000000000000057FC
:100DA000726974696E6720746F2066696C653A2099
:100DB000006F70656E206661696C65642C20466901
:100DC0006C653A20006F70656E206661696C6564C1
:100DD0002C2046696C653A200046696C6520736575
:100DE0006C65637465640A002053697A653A200073
:100DF00046696C65206F70656E65643A20006F709F
:100E0000656E206661696C65642C2046696C653A84
:100E100020004E6F772066726573682066696C6586
:100E20003A20004E6F7720646F696E672066696CA8
:100E3000653A20002220706F730022207061726575
:100E40006E743A2200535542524F5554494E452034
:100E500043414C4C207461726765743A22005543DB
:100E60004349534F2E2000747279696E6720746F66
:100E70002063616C6C207375622D67636F646520FD
:100E800066696C6573207769746820746F6F206D74
:100E9000616E79206C6576656C732E204D4158200B
:100EA0006C6576656C2069733A0043616E6E6F7491
:100EB000206F70656E2073756264697220005361E3
:100EC0006C766120696E206D656D6F72696100508E
:100ED000696174746F0050696174746F005567655F
:100EE0006C6C6F005567656C6C6F0056656C6F635A
:100EF0006974C3A02076656E746F6C610056656C72
:100F00006F636974C3A02076656E746F6C61005462
:100F1000656D70657261747572610053616C7661A4
:100F200020696E206D656D6F726961005069617432
:100F3000746F0050696174746F005567656C6C6FF5
:100F4000005567656C6C6F0056656C6F636974C3A0
:100F5000A02076656E746F6C610056656C6F636976
:100F600074C3A02076656E746F6C610054656D70FB
:100F700065726174757261004570617373692F6D7C
:100F80006D004570617373692F6D6D005A706173E8
:100F900073692F6D6D005A70617373692F6D6D00E9
:100FA0005970617373692F6D6D0059706173736946
:100FB0002F6D6D005870617373692F6D6D005870DF
:100FC000617373692F6D6D00412D53706F73746180
:100FD0006D656E746F00412D53706F7374616D6534
:100FE0006E746F00412D7265747261637400412DDF
:100FF0007265747261637400416D617820450041CF
:101000006D6178204500416D6178205A00416D6125
:1010100078205A00416D6178205900416D61782037
:101020005900416D6178205800416D617820580069
:101030005654726176206D696E0056547261762046
:101040006D696E00566D696E00566D696E00566D65
:101050006178204500566D6178204500566D6178B5
:10106000205A00566D6178205A00566D61782059DB
:1010700000566D6178205900566D617820580056F1
:101080006D617820580056652D6A65726B00566553
:101090002D6A65726B00567A2D6A65726B00567AFE
:1010A0002D6A65726B005678792D6A65726B0056F1
:1010B00078792D6A65726B00416363656C004163EA
:1010C00063656C0070696174746F205A00706961A7
:1010D00074746F205A00436F6E74726F6C6C6F0083
:1010E0004D756F76692058004D756F7669205900EF
:1010F0004D756F7669205A004573747275736F72FF
:101100006532004573747275736F72653100457393
:10111000747275736F726532004573747275736F94
:10112000726531004573747275736F7265004D7529
:101130006F7669205A004D756F76692059004D759C
:101140006F76692058004D756F766920417373651D
:10115000004D756F766920646920302E316D6D0009
:101160004D756F7669206469202020316D6D004DCA
:10117000756F7669206469202031306D6D00507282
:1011800065706172610052697072697374696E6131
:1011900020696D702E004361726963612064612073
:1011A0006D656D6F7269610053616C766120696E67
:1011B000206D656D6F7269610046696C616D656E69
:1011C000746F004D6F76696D656E746F0054656D58
:1011D0007065726174757261004D656E7520707214
:1011E000696E636970616C65004D33303320553131
:1011F0002045256920532569005072657269736323
:10120000616C64612041425320636F6E66005072CE
:101210006572697363616C646120504C4120636F37
:101220006E6600504944204175746F74756E650098
:10123000504944204175746F74756E65005049447F
:101240002D44005049442D44005049442D4900503C
:1012500049442D49005049442D50005049442D50D7
:10126000000220466163740002204661637400023C
:10127000204D61780002204D61780002204D696E9A
:101280000002204D696E004F6666004F6E200041DF
:1012900075746F74656D700056656C6F636974C3A7
:1012A000A02076656E746F6C610056656C6F636923
:1012B00074C3A02076656E746F6C610050696174B0
:1012C000746F0050696174746F005567656C6C6F62
:1012D000005567656C6C6F00436F6E74726F6C6C59
:1012E0006F00526973632E20636F6D706C6574615B
:1012F000746F003F0A0020573A0052697363616CB3
:1013000064616D656E746F2E2E0046616C6C612099
:1013100056332070726F6E746F2E00506961747452
:101320006F2050726F6E746F003F0A0020573A00B2
:10133000526973632E2050696174746F2E2E0020E1
:101340005A3A0020423A0020436F756E7420413AA9
:10135000200020453A00205A3A0020593A00583AD5
:101360000023646566696E65202044454641554CFE
:10137000545F4B64200023646566696E65202044D9
:10138000454641554C545F4B6920002364656669AE
:101390006E65202044454641554C545F4B702000FB
:1013A000504944204175746F74756E652066696E8E
:1013B0006973686564212050757420746865206CB9
:1013C000617374204B702C204B6920616E64204B3C
:1013D0006420636F6E7374616E74732066726F6DD8
:1013E0002062656C6F7720696E746F20436F6E6644
:1013F000696775726174696F6E2E680A005049449E
:10140000204175746F74756E65206661696C6564E2
:10141000212074696D656F75740A0050494420413C
:1014200075746F74756E65206661696C65642120E2
:1014300054656D706572617475726520746F6F208C
:10144000686967680A00204B643A2000204B693ABB
:101450002000204B703A200020436C617373696355
:1014600020504944200A002054753A2000204B7532
:101470003A2000206D61783A2000206D696E3A2094
:101480000020643A200020626961733A20004D34E4
:1014900032312072657175697265732058595A200E
:1014A0006F7220494A5A20706172616D657465726D
:1014B000730A004D657368205859206F7220494A9D
:1014C0002063616E6E6F74206265207265736F6C4D
:1014D0007665640A004D657368205859206F722044
:1014E000494A2063616E6E6F742062652072657375
:1014F0006F6C7665640A007C3C3E5E2B3D3F2F5B43
:101500005D3B2C2A225C00534420436172642072AC
:10151000696D6F7373610053442043617264206985
:101520006E73657269746100454550524F4D20637A
:101530006865636B73756D206D69736D6174636845
:101540000A00206279746573290A002073746F722F
:1015500065642073657474696E6773207265747254
:10156000696576656420280048617264636F64650C
:10157000642044656661756C742053657474696E8B
:101580006773204C6F616465640A0020204D32301F
:10159000302044300A0020204D3230302054312099
:1015A000440020204D3230302044002044697361D3
:1015B000626C65640A0046696C616D656E742073C7
:1015C000657474696E67733A0020440020490020F6
:1015D000204D3330312050005049442073657474DD
:1015E000696E67733A0A0020460020420020204DB1
:1015F000313435205331204800204600204200205D
:10160000204D3134352053302048004D61746572CF
:1016100069616C2068656174757020706172616DBC
:1016200065746572733A0A00205A00205900202020
:1016300047323920533320580020590020580020C9
:10164000204D3432302053004D657368206265644C
:10165000206C6576656C696E673A0A00205A002036
:10166000590020204D323036205800486F6D6520DB
:101670006F666673657420286D6D290A0020450029
:10168000205A0020580020420020540020204D32D3
:101690003035205300416476616E63656420766165
:1016A000726961626C65733A20533D4D696E2066C4
:1016B0006565647261746520286D6D2F73292C2017
:1016C000543D4D696E2074726176656C2066656567
:1016D000647261746520286D6D2F73292C20423D42
:1016E0006D696E696D756D207365676D656E7420CB
:1016F00074696D6520286D73292C20583D6D6178C3
:10170000696D756D205859206A65726B20286D6D62
:101710002F73292C20205A3D6D6178696D756D20DD
:101720005A206A65726B20286D6D2F73292C20203A
:10173000453D6D6178696D756D2045206A65726BF8
:1017400020286D6D2F73290A00205400205200209C
:10175000204D323034205000416363656C65726106
:1017600074696F6E733A20503D7072696E74696E61
:10177000672C20523D7265747261637420616E64DF
:1017800020543D74726176656C0A00204500205A31
:101790000020590020204D3230312058004D617812
:1017A000696D756D20416363656C65726174696F05
:1017B0006E20286D6D2F7332293A0A0020450020D3
:1017C0005A0020590020204D3230332058004D61FE
:1017D00078696D756D2066656564726174657320E6
:1017E000286D6D2F73293A0A00204500205A0020E9
:1017F000590020204D3932205800537465707320F1
:1018000070657220756E69743A0A007A5F6D61784E
:101810003A20007A5F6D696E3A2000795F6D696EDB
:101820003A2000785F6D696E3A20005265706F72E1
:1018300074696E6720656E6473746F702073746171
:101840007475730A0020746F6F206C6F6E6720656B
:101850007874727573696F6E2070726576656E74D8
:1018600065640A0020636F6C642065787472757318
:10187000696F6E2070726576656E7465640A0052D9
:101880006573656E643A20006F6B0020746F6F2083
:101890006C6F6E6720657874727573696F6E2070F7
:1018A000726576656E7465640A0020636F6C6420EF
:1018B000657874727573696F6E2070726576656E87
:1018C0007465640A00627573793A20706175736596
:1018D0006420666F7220696E7075740A0062757399
:1018E000793A2070617573656420666F7220757334
:1018F00065720A00627573793A2070726F6365735E
:1019000073696E670A0055434349534F2E200055B3
:10191000434349534F2E20005269617676696172C4
:101920006520707265676F005354414D50414E54AD
:1019300045204645524D415441005072696E7465D0
:10194000722068616C7465642E206B696C6C282948
:101950002063616C6C6564210A00000000000000D7
:101960000000000016435761726E696E673A2048A6
:101970006F6D696E672042756D702044697669737A
:101980006F72203C20310A000000A0400000A040FF
:1019900000000040000025430000434300001643C0
:1019A000FFFF0124F4D43050C38E20C2A24017821E
:1019B0008B7011127A910D816CD90AA861E108C768
:1019C000586607615143061E4B5D05C145A7041AC1
:1019D000411104093D9803713931034036DB02653A
:1019E000339102D4305402802E1D02632CEE017517
:1019F0002AC501B028A001102781018F2564012B81
:101A0000244B01E0223401AC211F018D200D018007
:101A10001FFC00841EED00971DDF00B81CD200E6FD
:101A20001BC600201BBC00641AB200B219A8000A31
:101A300019A0006A189900D117910040178B00B5C2
:101A400016840031167E00B31579003A157300C76D
:101A5000146F0058146A00EE1366008813630025A3
:101A6000135E00C7125B006C12570015125400C1C0
:101A700011510070114F0021114B00D61049008DFB
:101A80001047004610440002104200C00F40008082
:101A90000F3E00420F3C00060F3B00CB0E38009378
:101AA0000E37005C0E3500270E3400F30D3200C1F6
:101AB0000D3100900D3000600D2E00320D2D00050F
:101AC0000D2C00D90C2B00AE0C2900850C29005CD4
:101AD0000C2700350C27000E0C2600E80B2400C450
:101AE0000B2400A00B23007D0B23005A0B2100398F
:101AF0000B2100180B2000F80A1F00D90A1E00BB9A
:101B00000A1E009D0A1D00800A1D00630A1C004772
:101B10000A1B002C0A1B00110A1A00F7091A00DD23
:101B2000091900C4091900AB091900920917007BB3
:101B3000091800630917004C091600360916002021
:101B40000916000A091500F5081500E0081400CC74
:101B5000081400B8081400A4081400900813007DAD
:101B60000812006B081300580812004608120034CF
:101B7000081100230811001208110001081100F0DB
:101B8000071000E0071000D0071000C0071000B0D9
:101B9000070F00A107100091070E0083070F0074C4
:101BA000070F0065070E0057070E0049070E003BA0
:101BB000070D002E070E0020070D0013070D00066D
:101BC000070D00F9060C00ED060D00E0060C00D430
:101BD000060C00C8060C00BC060C00B0060C00A4E5
:101BE000060B0099060C008D060B0082060B007791
:101BF000060B006C060B0061060A0057060B004C32
:101C0000060A0042060A0038060A002E060A0024C8
:101C1000060A001A060A001006090007060A00FD57
:101C2000050900F4050900EB050900E2050900D9E2
:101C3000050900D0050900C7050900BE050900B562
:101C4000050800AD050800A50509009C05080094DD
:101C50000508008C050800840508007C0508007450
:101C60000508006C050700650508005D05070056BE
:101C70000508004E05070047050700400508003825
:101C8000050700310507002A050700230507001C8A
:101C9000050600160507000F0507000805060002E7
:101CA000050700FB040600F5040700EE040600E843
:101CB000040600E2040700DB040600D5040600CF9A
:101CC000040600C9040600C3040600BD040600B7EC
:101CD000040600B1040500AC040600A6040600A03A
:101CE0000405009B04060095040500900406008A84
:101CF00004050085040500800406007A04050075CB
:101D0000040500700405006B04050066040500610D
:101D10000405005C04050057040500520405004D4D
:101D200004050048040500430405003E0404003A8D
:101D300004050035040500300404002C04050027C8
:101D4000040400230405001E0404001A0404001601
:101D5000040500110404000D040400090405000436
:101D600004040000040400FC030400F8030400F46D
:101D7000030400F0030400EC030400E8030400E49F
:101D8000030400E0030400DC030400D8030400D4CF
:101D9000030400D0030400CC030400C8030300C5FF
:101DA00003030024F404D9201BC40C5C0E9804C463
:101DB000095F0265077101F405F900FB04B30048EF
:101DC000048700C10369005803550003034500BEA2
:101DD000023A008402310053022A0029022500043D
:101DE000022000E4011C00C8011900AF011700988F
:101DF00001140084011300710110006101100051F1
:101E0000010E0043010D0036010B002B010B0020D9
:101E1000010B00150109000C01090003010800FB7A
:101E2000000800F3000800EB000700E4000600DEF5
:101E3000000600D8000600D2000600CC000500C74E
:101E4000000500C2000500BD000400B9000400B593
:101E5000000400B1000400AD000400A9000400A5C6
:101E6000000300A20003009F0004009B00030098F1
:101E70000003009500020093000300900003008D12
:101E80000002008B0003008800020086000200842C
:101E9000000300810002007F0002007D0002007B41
:101EA0000002007900020077000100760002007451
:101EB00000020072000100710002006F0002006D5C
:101EC0000001006C0002006A000100690002006766
:101ED000000100660001006500010064000200626C
:101EE00000010061000100600001005F0002005D70
:101EF0000001005C0001005B0001005A0001005974
:101F00000001005800010057000100560001005573
:101F10000001005400010053000000530001005272
:101F200000010051000100500001004F0001004E6F
:101F30000000004E0001004D0001004C0001004B6C
:101F40000000004B0001004A000100490001004868
:101F50000000004800010047000100460000004664
:101F6000000100450000004500010044000100435D
:101F70000000004300010042000000420001004157
:101F800000000041000100400001003F0000003F50
:101F90000001003E0000003E0001003D0000003D49
:101FA0000001003C0000003C0000003C0001003B40
:101FB0000000003B0001003A0000003A0001003937
:101FC000000000390001003800000038000000382F
:101FD0000001003700000037000100360000003625
:101FE000000000360001003500000035000000351B
:101FF0000001003400000034000000340001003310
:102000000000003300000033000100320000003205
:1020100000000032000100310000003100000031FA
:102020000001003000000030000000300001002FEF
:102030000000002F0000002F0000002F0001002EE4
:102040000000002E0000002E0001002D0000002DD9
:102050000000002D0000002D0001002C0000002CCD
:102060000000002C0000002C0001002B0000002BC1
:102070000000002B0000002B0001002A0000002AB5
:102080000000002A0000002A0001002900000029A9
:10209000000000290000002900000029000100289C
:1020A0000000002800000028000000280000002890
:1020B0000001002700000027000000270000002783
:1020C0000000002700010026000000260000002676
:1020D0000000002600000026000100250000002569
:1020E000000000250000002500000025000000255C
:1020F000000100240000002400000024000000244F
:102100000000002400010023000000230000002341
:102110000000002300000023000000230000002333
:102120000001002200000022000000220000002226
:102130000000002200000022000100210000002118
:10214000000000210000002100000021000000210B
:1021500000000021000100200000002000000020FD
:1021600000000020000000200000002000000020EF
:10217000000000200001001F0000001F0000001FE1
:102180000000001F0000001F0000001F0000001FD3
:102190000001001E0000001E0000001E0000001EC6
:1021A0000000004D383420582059205A2045005056
:1021B000726572697363616C646120504C41205098
:1021C000696174746F0050726572697363616C64E5
:1021D0006120504C41005072657061726100507214
:1021E0006572697363616C64612041425320506978
:1021F0006174746F0050726572697363616C6461BD
:10220000204142530050726570617261004C6976E2
:10221000656C2E207465726D696E61746F21004D5E
:10222000756F7669205A004732380050756E746FAA
:10223000207375636365737369766F002569202F5A
:10224000202575005072656D692070657220496E99
:10225000697A6961726500486F6D652061737369A1
:102260002058595A00473238004C6976656C6C61C9
:10227000207069616E6F00416E6E756C6C61004D0F
:1022800034323800416363656E646920616C696D46
:10229000656E742E004D383100537065676E69208D
:1022A000616C696D656E742E004D38300052616648
:1022B0006672656464610050726572697363616C13
:1022C0006461204142530050726572697363616CAE
:1022D000646120504C41004D3834004469736162A0
:1022E000696C697461204D6F746F7269004D756F10
:1022F00076692041737365004C6976656C6C61206A
:102300007069616E6F00496D702E206F666673652F
:102310007420686F6D6500473238004175746F2016
:10232000486F6D65004D656E75207072696E6369EA
:1023300070616C65004469616D2E2066696C6F2068
:1023400032004469616D2E2066696C6F2032004452
:1023500069616D2E2066696C6F2031004469616D82
:102360002E2066696C6F2031004F6666004F6E202C
:10237000004520696E206D6D3300436F6E74726F7F
:102380006C6C6F0043616E6E6F7420656E74657265
:10239000207375626469723A2000052E2E004D6527
:1023A0006E75207072696E636970616C650045724C
:1023B000726F722077726974696E6720746F20453E
:1023C0004550524F4D210A00206279746573290AE5
:1023D0000053657474696E67732053746F7265641B
:1023E0002028006265640A002C2073797374656D7F
:1023F0002073746F70706564212048656174657224
:102400005F49443A200052697363616C642E204630
:10241000616C6C69746F0048656174696E672066F1
:1024200061696C65640052697363616C642E204657
:10243000616C6C69746F0048656174696E672066D1
:1024400061696C65640054454D502046554F5249B2
:1024500020434F4E54524F4C4C4F00546865726DA0
:10246000616C2052756E61776179004572723A2015
:1024700054454D50204D415353494D41004D415815
:1024800054454D50207472696767657265640045F4
:1024900072723A2054454D50204D494E494D4100ED
:1024A0004D494E54454D5020747269676765726599
:1024B00064004572723A2054454D50204D494E49B2
:1024C0004D412050494154544F004D494E54454DC3
:1024D0005020747269676765726564004572723A6C
:1024E0002054454D50204D415353494D41205049B2
:1024F0004154544F004D415854454D502074726919
:102500006767657265640000CCC28DC111241FBE6F
:10251000CFEFD1E2DEBFCDBF00E00CBF14E0A0E002
:10252000B2E0EEE8FFE901E00BBF02C007900D92B8
:10253000A837B107D9F723E1A8E7B4E001C01D929D
:10254000AF33B207E1F712E1C5E8D2E100E006C01F
:1025500021970109802FFE010E941ECFC438D107A8
:1025600080E00807A9F70E943BBA0C94B6CF0C9400
:1025700000002F923F924F925F926F927F928F92C4
:102580009F92AF92BF92CF92DF92EF92FF920F9302
:102590001F93CF93DF93CDB7DEB7CA56D1090FB6DD
:1025A000F894DEBF0FBECDBF0091B10620E6029FBA
:1025B000800111240F5C1A4F109399040093980422
:1025C0008091F50980FF1BC0ACE4EA2EABE0FA2E47
:1025D000F7018491811102C0780106C00E94E6B51E
:1025E000FFEFEF1AFF0AF4CFD7018D917D01882309
:1025F00019F00E94E6B5F8CF8AE00E94E6B5F8012E
:1026000080810F5F1F4F8032D1F3F0939904E093E4
:1026100098048E34D1F4818190ED980F9A3010F0A7
:102620008D3299F432969F012F5F3F4F8081805306
:102630008A3010F4F901F7CFDF0131968C918032A6
:10264000D9F3B0939904A0939804C0909804D090C3
:1026500099046AE270E0C6010E947ECF009749F0BB
:10266000FC0131968291803211F08A3211F410828D
:10267000F9CF96012F5F3F4FF90180812F5F3F4FC8
:102680008032D1F38053B1E02B96BFAF2B978A30C5
:1026900018F02B961FAE2B978A3010F00C9432282E
:1026A00000E010E02AE0209FC001219F900D11243E
:1026B0008C01005311098191080F111D87FD1A9596
:1026C000808180538A3078F37F013196D7018C91D5
:1026D0008032D1F3F6018081F0929104E09290046F
:1026E00021E030E03093FD092093FC098D3411F492
:1026F0000C94361C843511F40C940728873411F09F
:102700000C942B280430110509F4CEC330F48091C9
:102710009C020230110528F51AC00A35110511F482
:102720000C949A1B50F40C31110509F403C40D31BB
:10273000110509F4A4C50C942E280B35110509F4D4
:10274000FDC70C35110509F4FEC70C942E2888230B
:1027500011F40C942E280E94B82C0E9486900C94A0
:102760002E28882311F40C942E280E94B82C89E47A
:102770000E94352C882329F00E948F2C6B017C014C
:1027800003C0C12CD12C76018AE40E94352C882309
:1027900039F00E948F2C6EA37FA388A799A704C04D
:1027A0001EA21FA218A619A6A7019601C701B6016D
:1027B0000E9445C84B015C012EA13FA148A559A527
:1027C000CA01B9010E9445C89B01AC01C501B40111
:1027D0000E940ACC0E9475CE2A966CAF7DAF8EAF58
:1027E0009FAF2A972091D0083091D1084091D2080C
:1027F0005091D3082AAB3BAB4CAB5DABC701B601E4
:102800000E940ACC2F966CAF7DAF8EAF9FAF2F97F3
:102810008091D4089091D508A091D608B091D7089E
:102820008EAB9FABA8AFB9AF9C01AD016EA17FA1EC
:1028300088A599A50E940ACC63966CAF7DAF8EAF38
:102840009FAF63972091D8083091D9084091DA085A
:102850005091DB0822962CAF3DAF4EAF5FAF229771
:1028600060910E0A70910F0A8091100A9091110ADE
:102870000E9409CC6EA77FA788AB99ABD701C60190
:10288000B0588AA39BA3ACA3BDA32EA13FA148A58A
:1028900059A550582AA73BA74CA75DA7C090060A88
:1028A000D090070AE090080AF090090ACAAEDBAEA1
:1028B000ECAEFDAE2F962CAD3DAD4EAD5FAD2F977E
:1028C000C701B6010E9409CC6B017C0120910A0A64
:1028D00030910B0A40910C0A50910D0A26962CAFAC
:1028E0003DAF4EAF5FAF269763962CAD3DAD4EAD7D
:1028F0005FAD639726966CAD7DAD8EAD9FAD26978F
:102900000E9409CC4B015C01A70196016AA17BA141
:102910008CA19DA10E9445C82B013C01A5019401F9
:102920006AA57BA58CA59DA50E9445C89B01AC010D
:10293000C301B2010E940ACC2B013C01A501940104
:102940006AA17BA18CA19DA10E9445C84B015C019D
:10295000A70196016AA57BA58CA59DA50E9445C8E7
:102960009B01AC01C501B4010E9409CCA3019201F5
:102970000E947DCC6B017C0120E030E0A9010E9427
:10298000E0C787FF0AC02BED3FE049EC50E4C701E8
:10299000B6010E940ACC6B017C010230110551F492
:1029A0002BED3FE049EC50E4C701B6010E9409CC91
:1029B0006B017C0120E030E0A901C701B6010E9453
:1029C000E0C7811124C02AAD3BAD4CAD5DAD6AA915
:1029D0007BA98CA99DA90E94E0C7811118C02696E9
:1029E0002CAD3DAD4EAD5FAD26976EA97FA988ADEC
:1029F00099AD0E94E0C781110AC02BED3FE049EC80
:102A000050E4C701B6010E940ACC6B017C01A7010A
:102A100096012A966CAD7DAD8EAD9FAD2A970E9432
:102A200045C89B01AC010E9445C84B015C012EA525
:102A30003FA548A959A9CA01B9010E9445C89B01EF
:102A4000AC01C501B4010E940ACC0E9475CE4B01B5
:102A50005C012FE632E143E85AE30E94E0C787FDBC
:102A60001FC2C501B4010E947FCD0E9453CD7BAF30
:102A70006AAF672B21F481E090E09BAF8AAF409072
:102A8000DC085090DD086090DE087090DF08AAAD89
:102A9000BBADBD0180E090E00E94E4C74B015C014A
:102AA0009B01AC01C701B6010E94E6CC6AAB7BABCF
:102AB0008CAB9DABA50194016EA57FA588A999A9B2
:102AC0000E94E6CCA7966CAF7DAF8EAF9FAFA79765
:102AD000A30192016091120A7091130A8091140A65
:102AE0009091150A0E9409CCA50194010E94E6CCA0
:102AF000AB966CAF7DAF8EAF9FAFAB972AA93BA9CA
:102B00004CA95DA9CA01B9010E9445C820E030E086
:102B100040E05FE30E9445C89B01AC0160E070E0CB
:102B200080E89FE30E9409CC2A966CAF7DAF8EAF00
:102B30009FAF2A972296CCACDDACEEACFFAC2297CF
:102B4000C986DA86EB86FC864D865E866F86788A35
:102B500020E030E040E752E460918102709182020F
:102B600080918302909184020E94E6CC6B017C01EB
:102B700060915C0270915D02072E000C880B990B2E
:102B80000E94E6C79B01AC01C701B6010E9445C87F
:102B90002AE037ED43E25CE30E9445C867966CAFDC
:102BA0007DAF8EAF9FAF67970E94CDB99B01AC01FF
:102BB00028533F4F4F4F5F4F6B962CAF3DAF4EAFFB
:102BC0005FAF6B973AA13EA74BA14EAB2CA03DA0A7
:102BD00023961FAE239781E090E09FAF8EAFAAAD02
:102BE000BBADEEADFFADAE17BF0709F42FC10E941C
:102BF00083B20E94CDB98B019C016B96CCACDDAC4D
:102C0000EEACFFAC6B970C191D092E093F0937FD7F
:102C10000EC09B01AC0128533F4F4F4F5F4F6B9647
:102C20002CAF3DAF4EAF5FAF6B970E94438E2396A4
:102C30008FAD23978F5F893108F047C023968FAF00
:102C400023972AA53BA54CA55DA52A966CAD7DAD25
:102C50008EAD9FAD2A970E9445C86B017C012EA5C1
:102C60003EA9A1016AA97BA98CA99DA90E9445C87A
:102C7000A70196010E940ACC7B018C012EA53EA9DA
:102C8000A1012A966CAD7DAD8EAD9FAD2A970E94B5
:102C900045C84B015C012AA53BA54CA55DA56AA9C9
:102CA0007BA98CA99DA90E9445C89B01AC01C501C7
:102CB000B4010E9409CC6EA77EAB1C01C701D801EC
:102CC0008AA79BA7ACA7BDA751C04EAD5FADBA0107
:102CD00080E090E00E94E4C72AA93BA94CA95DA925
:102CE0000E9445C84B015C010E94E3CC6B017C0152
:102CF000C501B4010E946BCE4B015C01A701960196
:102D00006AA17BA18CA19DA10E9445C82B013C0119
:102D1000A50194016EA17FA188A599A50E9445C82F
:102D2000A30192010E940ACC6EA77EAB1C01A501F3
:102D300094016AA17BA18CA19DA10E9445C84B0171
:102D40005C01A70196016EA17FA188A599A50E94AB
:102D500045C89B01AC01C501B4010E9409CC6AA71A
:102D60007BA78CA79DA723961FAE23972EA53EA9D0
:102D7000A1012F966CAD7DAD8EAD9FAD2F970E94BA
:102D80000ACC2B013C0169837A838B839C832AA51F
:102D90003BA54CA55DA563966CAD7DAD8EAD9FAD9D
:102DA00063970E940ACC6F966CAF7DAF8EAF9FAFDA
:102DB0006F976D837E838F83988729853A854B85AE
:102DC0005C85A7966CAD7DAD8EAD9FADA7970E943B
:102DD0000ACCA3966CAF7DAF8EAF9FAFA3976987E8
:102DE0007A878B879C87AB962CAD3DAD4EAD5FADA2
:102DF000AB976D857E858F8598890E940ACC6D87FB
:102E00007E878F87988B809153098F9367968CACC0
:102E10009DACAEACBFAC6797CE010D966C01A3968E
:102E2000ECACFDAC0EAD1FADA3976F962CAD3DADD8
:102E30004EAD5FAD6F97C301B2010E94167CAEAD7F
:102E4000BFAD1196BFAFAEAF0F90C9CEE0900E0AE6
:102E5000F0900F0A0091100A1091110A20910A0AAD
:102E600030910B0A40910C0A50910D0A6091060AAC
:102E70007091070A8091080A9091090AE09153091C
:102E8000EF9367968CAC9DACAEACBFAC6797F2E1AC
:102E9000CF2EFAE0DF2E0E94167C0E940C2A0F90A3
:102EA0000E940D310C942E2880E50E94352C882339
:102EB00029F00E94842C6B017C0103C0C12CD12C11
:102EC000760183E50E94352C882361F00E948F2CC7
:102ED00020E030E04AE754E40E9445C80E9453CD08
:102EE0006B017C010E94C4B50E940D318091FE09E6
:102EF0009091FF09A091000AB091010AC80ED91E55
:102F0000EA1EFB1E80911A02811105C060E083EF6A
:102F100091E00E949C700E94CDB9DC01CB018C191C
:102F20009D09AE09BF09B7FD02C00C942E280E946E
:102F3000438EF1CF0E94C4B510914E1011FF70C0A6
:102F40008091240F882309F459C08091250F88238C
:102F500009F454C08091260F882309F44FC0C09013
:102F6000D808D090D908E090DA08F090DB082091DA
:102F700000093091010940910209509103096091C3
:102F8000D4087091D5088091D6089091D7080E94F6
:102F900009CC2091F4083091F5084091F608509141
:102FA000F7080E9409CC4B015C012091FC0830918C
:102FB000FD084091FE085091FF086091D008709183
:102FC000D1088091D2089091D3080E9409CC209119
:102FD000F0083091F1084091F2085091F3080E94F6
:102FE00009CCA50194010E943FB79B01AC01C70128
:102FF000B6010E940ACC6B017C0106C0C12CD12C09
:10300000E0E8EE2EE0E4FE2E1D7F10934E10C092FD
:10301000D808D092D908E092DA08F092DB0806C00E
:10302000C12CD12C70E8E72E70E4F72E809181023C
:1030300090918202A0918302B091840280939404C3
:1030400090939504A0939604B093970480915C02AA
:1030500090915D02909393048093920484E690E0B3
:1030600090935D0280935C020E940D3111E01093F9
:10307000190288E50E94352CA82E89E50E94352C7E
:10308000082F8AE50E94352CB82EA11004C001112A
:1030900004C0182705C0011102C010E001C0182F9C
:1030A000109300020E94022A111102C0BB2021F0DD
:1030B00082E090E00E94988C80910002811102C011
:1030C000AA2021F080E090E00E94988C809100027C
:1030D000811102C0002321F081E090E00E94988CD1
:1030E0000E9444308091F0098093190210923005BB
:1030F00080914E1080FFA5C08091000281110CC00C
:103100008091240F882309F49CC08091250F882387
:1031100009F497C0BB2081F180E090E0AAE1B3E41C
:103120008093D8089093D908A093DA08B093DB086D
:103130000E94443080914E10826080934E10109215
:10314000D8081092D9081092DA081092DB080E9471
:10315000022A80E090E0A4EBB3E480938102909394
:103160008202A0938302B0938402BC01CD010E942D
:10317000162A0E94C4B565C08091260F882309F4E1
:1031800060C0A11003C0002309F45BC0C092D8083E
:10319000D092D908E092DA08F092DB080E9444301D
:1031A00080914E10826080934E10209100093091E2
:1031B000010940910209509103096091D40870916E
:1031C000D5088091D6089091D7080E9409CC20910B
:1031D000F4083091F5084091F6085091F7080E94E4
:1031E00009CC4B015C012091FC083091FD08409115
:1031F000FE085091FF086091D0087091D10880912D
:10320000D2089091D3080E9409CC2091F008309107
:10321000F1084091F2085091F3080E9409CCA501F1
:1032200094010E943FB79B01AC01C701B6010E9407
:1032300009CC6093D8087093D9088093DA089093EA
:10324000DB088091940490919504A0919604B0912C
:1032500097048093810290938202A0938302B0939B
:103260008402809192049091930490935D028093E4
:103270005C020E940D310E94EA5C0C942E2883E5CA
:103280000E94352C882319F10E94482C282F863063
:1032900068F003E213E0F8018491882311F40C94A0
:1032A0002E280E94E6B50F5F1F4FF5CF833009F43B
:1032B00044C138F4813009F486C0823009F48CC0EE
:1032C00006C0843009F4B1C1853009F4CCC18091C5
:1032D0004E1080FD03C004E013E06BC061E070E0BD
:1032E0008CEF92E00E94AF3063E070E081EF92E0FB
:1032F0000E94AF308CE20E94E6B563E070E080E0AF
:1033000090E00E945EB664E070E08EED92E00E9474
:10331000AF3002ED12E0F8018491882329F00E9479
:10332000E6B50F5F1F4FF7CF60914F1070915010AF
:10333000809151109091521045E00E9481B60FEBA0
:1033400012E0F8018491882329F00E94E6B50F5F0E
:103350001F4FF7CF5EE4C52E50E1D52E63E0F62E69
:1033600000E010E04CEBA42E42E0B42EF501849175
:10337000882331F00E94E6B5FFEFAF1ABF0AF6CFFF
:10338000F601E00FF11F658176818781908545E028
:103390000E9481B60C5F1F4F0C30110519F78AE0AF
:1033A0000E94E6B5FA942CE0C20ED11CF110D8CFE1
:1033B000BDC1F8018491882309F4B8C10E94E6B523
:1033C0000F5F1F4FF6CF0E94D23710920202109269
:1033D000010281EB92E0AAC0009101021091020269
:1033E00017FF0DC008E812E0F8018491882311F45A
:1033F0000C942E280E94E6B50F5F1F4FF5CF0115E4
:10340000110579F480E090E0AAE1B3E48093D80854
:103410009093D908A093DA08B093DB080E94443057
:103420002BC0C090D808D090D908E090DA08F0906E
:10343000DB088FEF800F63E00E94CECE392F80FF34
:1034400002C0291B322F082E000C990BFC01EE0F35
:10345000FF1FE80FF91FE30FF11D37FDFA95EE0F7F
:10346000FF1FEE0FFF1FE25BFF4EC582D682E78291
:10347000F0860930110594F5802F63E00E94CECECE
:10348000192F80FF03C092E0911B192FF7E58F02DF
:10349000B0011124665F7F4F072E000C880B990B3B
:1034A0000E94E6C76B017C0128E41202B0011124DE
:1034B000665F7F4F072E000C880B990B0E94E6C7B2
:1034C000A70196010E94132B8091010290910202A4
:1034D0000196909302028093010228C180E090E05F
:1034E000A0E1B1E48093D8089093D908A093DA08BA
:1034F000B093DB080E94D62A0E94C4B504E712E00C
:10350000F8018491882329F00E94E6B50F5F1F4FD0
:10351000F7CF8FEF9FEF909302028093010280918B
:103520004E10816080934E1080E792E09093BF0828
:103530008093BE080E943B2DF9C088E50E94352C7F
:10354000811103C000E612E013C00E94772C0FEF38
:10355000080F0330C0F009E412E0F80184918823D9
:1035600011F40C942E280E94E6B50F5F1F4FF5CF83
:10357000F8018491882311F40C942E280E94E6B55A
:103580000F5F1F4FF5CF89E50E94352C811103C0D5
:1035900009E312E013C00E94772C1FEF180F1330BD
:1035A000C0F002E212E0F8018491882311F40C9437
:1035B0002E280E94E6B50F5F1F4FF5CFF8018491CA
:1035C000882311F40C942E280E94E6B50F5F1F4F3C
:1035D000F5CF8AE50E94352C811103C002E112E08B
:1035E00019C00E948F2C212F110F330BF901EE0F00
:1035F000FF1FE20FF31FE00FF11D07FDFA95EE0F1D
:10360000FF1FEE0FFF1FE25BFF4E6583768387830C
:1036100090878CC0F8018491882311F40C942E2893
:103620000E94E6B50F5F1F4FF5CF8AE50E94352C4B
:10363000811103C002E012E00BC00E948F2C609346
:103640004F107093501080935110909352106EC091
:10365000F8018491882311F40C942E280E94E6B579
:103660000F5F1F4FF5CF80914E1081FF5DC02091FD
:1036700000093091010940910209509103096091BC
:10368000D4087091D5088091D6089091D7080E94EF
:1036900009CC2091F4083091F5084091F60850913A
:1036A000F7080E9409CC6B017C012091FC08309145
:1036B000FD084091FE085091FF086091D00870917C
:1036C000D1088091D2089091D3080E9409CC209112
:1036D000F0083091F1084091F2085091F3080E94EF
:1036E00009CCA70196010E943FB720E030E040E8F6
:1036F00050E40E9409CC9B01AC016091D808709104
:10370000D9088091DA089091DB080E940ACC609376
:10371000D8087093D9088093DA089093DB080E9448
:10372000D2370E94443002C00E94D2370E94EA5C25
:103730000C942E2810928F040C942E2881E08093F4
:103740008F040C942E2885E40E94352C982E81112C
:1037500002C00E94C4B550EAA52E52E0B52E60ED1D
:10376000C62E68E0D62E70EFE72E78E0F72E00E048
:1037700010E0812CD5018D915D010E94352C8823AC
:1037800039F1F60140805180628073800E948F2C55
:10379000D6016D937D938D939C9313970330C1F065
:1037A000A30192010E9409CC9B01AC01F701608149
:1037B0007181828193810E940ACCD7016D937D93A0
:1037C0008D939C931397C8010E94AA2B88248394FD
:1037D0000F5F1F4FB4E0CB0ED11CE4E0EE0EF11CE6
:1037E0000430110539F6882021F00E9444300C94F1
:1037F0002E28992011F40C942E282091EC08309159
:10380000ED084091EE085091EF086091DC0870914E
:10381000DD088091DE089091DF080E9445C80E9473
:103820003BCE609348107093491080934A10909358
:103830004B108FB7F8944091481050914910609107
:103840004A1070914B104093CC085093CD08609370
:10385000CE087093CF088FBF109238101092391095
:1038600010923A1010923B100C942E280F3611052E
:1038700009F4ABC408F0BCC00A32110509F4F6C360
:1038800008F05BC00731110509F465C278F5023113
:10389000110509F4C7C5E0F40230110508F47FC131
:1038A0000131110511F00C942E2860E08CE693E0B4
:1038B0000E949C705F988A989FB7F8948091080145
:1038C0008E7F809308019FBF129847980C942E28F2
:1038D0000531110509F435C208F037C2043111056C
:1038E00011F00C942E280CE813E0EDC10B311105FA
:1038F00009F45BC238F40931110509F43EC208F439
:1039000031C245C20E31110509F48AC260F40C318E
:10391000110511F00C942E2840E060E0C7010E94D0
:103920005C460C942E280F31110509F4D0C20032E8
:10393000110509F479C20C942E280535110509F4F6
:10394000A2C530F50035110509F43CC588F40C34E6
:10395000110509F4C7C30D34110509F4DBC30B3499
:10396000110511F00C942E280E9431430C942E283E
:103970000235110509F44FC508F431C503351105A9
:1039800009F44CC50435110509F44CC50C942E28D6
:103990000A36110509F4E2C4D8F40836110509F411
:1039A000BCC308F0BBC40C35110511F00C942E28D3
:1039B000B0EA8B2EB2E09B2E00EE18E082E9A82E32
:1039C00089E0B82E20E23AE03BA32AA3312C74C54B
:1039D0000C36110509F461C408F4E4C40D36110570
:1039E00009F4B6C40E36110509F4DEC30C942E2872
:1039F0000C3D110511F40C94042508F067C00C3837
:103A0000110509F476C470F50337110509F4C4C033
:103A100050F40137110509F443C408F0CFC58FE312
:103A200094E00E94F88D0737110509F4D0C558F4C9
:103A30000537110511F00C942E2860E0C7010E9493
:103A4000B1700C942E280837110509F4BAC509374E
:103A5000110511F00C942E28109219021092F00901
:103A60000C942E28093C110509F4CEC670F40E3BC7
:103A7000110509F470C4083C110509F457C6013951
:103A8000110511F00C942E28A5C50C3C110509F464
:103A9000F0C660F40B3C110511F00C942E28E0EAFE
:103AA000EE2EE2E0FE2E02E919E0D4C60D3C11052F
:103AB00009F445C70E3C110511F00C942E2870EA4C
:103AC000E72E72E0F72E00E010E089C7043AF1E03B
:103AD0001F0711F40C94B92670F50D3231E013076D
:103AE00011F40C94972578F4023E110509F4AEC741
:103AF0000C3251E0150709F4F6C70D3D110511F020
:103B00000C942E288CC70F3281E0180711F40C9406
:103B1000B32610F40C944C260039A1E01A0711F4D6
:103B20000C94B6260A39114011F00C942E280E94EC
:103B3000B6580C942E28053FE1E01E0711F40C94B2
:103B4000E627A8F40C3A21E0120711F40C94E126C0
:103B5000043F31E0130711F40C94E327053A1140B8
:103B600011F00C942E280E94DB570C942E28073F4E
:103B700051E0150711F40C94EC2710F40C94E9278C
:103B8000003A93E0190709F498C1073E134011F475
:103B90000C94F9270C942E2801E714E005C580E564
:103BA0000E94352C882359F00E94842C4B015C0123
:103BB00011E0672B682B692B31F410E004C010E092
:103BC000812C912C540183E50E94352C8823D9F057
:103BD0000E948F2C20E030E04AE754E40E9445C860
:103BE0000E9453CD4B015C0111110FC0672B682B54
:103BF000692B59F4F7018081882339F061E0C7010E
:103C00000E94B17007C01123A9F360E08BE593E037
:103C10000E949C7081E080930D0910920C090E9413
:103C2000C4B50E940D3181149104A104B10439F18D
:103C30008091FE099091FF09A091000AB091010ABC
:103C4000880E991EAA1EBB1E83E090E09093FD098A
:103C50008093FC090E94CDB9DC01CB018819990938
:103C6000AA09BB09B7FD02C00C9469288091DE093E
:103C700082FF02C00C9469280E94438EEBCF83E040
:103C800090E09093FD098093FC098091DE0982FD0C
:103C900003C00E94438EF9CF81E090E09093FD092C
:103CA0008093FC098091A51060E0882331F08BE4BB
:103CB00093E00E949C700C942E288AE393E00E946B
:103CC0009C700C942E28F8018491882329F00E947E
:103CD000E6B50F5F1F4FF7CF10922B1310922A13E8
:103CE00086ED90E10E949C638BE1E6EDF0E1DE0160
:103CF000159601900D928A95E1F78091D4109091DC
:103D0000D5109C838B838EEC93E09A83898340E06B
:103D100050E0BE016F5F7F4F83E794E00E9448440C
:103D2000CE0101960E94DE8D0DE713E0F80184912B
:103D3000882311F40C942E280E94E6B50F5F1F4FC4
:103D4000F5CF0E94ED380C942E281092A5101092F9
:103D5000A6100C942E2840E061E0C7010E945C464A
:103D60000C942E288091A610882319F081E080936E
:103D7000A5100E9431430C942E288091A510882311
:103D800011F40C942E281092A5100C942E288091DA
:103D9000A610882311F40C942E2883E50E94352C5C
:103DA00081110C9475280C942E288091A6108111F5
:103DB00003C00FEA13E029C00DE913E0F801849174
:103DC000882329F00E94E6B50F5F1F4FF7CF60915F
:103DD00021137091221380912313909124134AE0B0
:103DE0000E94EDB58FE20E94E6B560911D137091BF
:103DF0001E1380911F13909120134AE00E94EDB58D
:103E00008AE00E94E6B50C942E28F801849188235C
:103E100011F40C942E280E94E6B50F5F1F4FF5CFCA
:103E20000E9446310C942E288091A51081110E9489
:103E3000C4B5009190041091910461E270E0C80152
:103E40000E947ECF009719F08C010F5F1F4F80E515
:103E50000E94352C882349F0FF24F39480917D043F
:103E600090917E048017910708F0F12C8091A610A4
:103E7000882311F40C942E284F2D61E0C8010E9474
:103E80005C4683E50E94352C882349F080917D04AF
:103E900090917E048017910710F40C9486288091ED
:103EA000A610882319F081E08093A510F1100C94DE
:103EB0002E280E9431430C942E2881E08093A41078
:103EC00040E060E0C7010E945C460C942E280E94EE
:103ED0003D3A7B018C0120E831E541E050E00E9451
:103EE000CECBC9016DE671E00E94DBCE4B015C01D7
:103EF000C801B70120E13EE040E050E00E94CECB97
:103F0000CA01B90128E130E040E050E00E94CECB88
:103F1000762E672EC62ED72E4CE3242E312C412C24
:103F2000512CC801B701A20191010E94CECBF62EFF
:103F3000E72ECA01B901A20191010E94CECBCB01AB
:103F40008E010F5F1F4F8114910499F0EF92FF9241
:103F50007F936F936F927F92BF92AF929F928F9257
:103F600088EE93E09F938F931F930F930E94B2C7A5
:103F700013C0A114B104B1F0EF92FF927F936F933D
:103F80006F927F92BF92AF9288ED93E09F938F9351
:103F90001F930F930E94B2C70FB6F894DEBF0FBEF7
:103FA000CDBF30C0CD2879F0EF92FF927F936F9311
:103FB0006F927F928CEC93E09F938F931F930F935C
:103FC0000E94B2C7E9CF892B69F0EF92FF927F93ED
:103FD0006F9384EC93E09F938F931F930F930E94B2
:103FE000B2C7DACFEF92FF9280EC93E09F938F936A
:103FF0001F930F930E94B2C70F900F900F900F90D6
:104000000F900F9060E0C8010E94B1703CE4E32E75
:104010003BE0F32EF7018491811105C02CEFE22ED5
:1040200023E0F22E06C00E94E6B5FFEFEF1AFF0A6A
:10403000F1CFF7018491882331F00E94E6B5FFEFBC
:10404000EF1AFF0AF6CFD8018D918D01882319F060
:104050000E94E6B5F8CF8AE00E94E6B58091B509E6
:10406000882309F4FBC70E94BF8DF8C783E50E942F
:10407000352C882309F4F2C70E94772C7C018F3FEE
:10408000910511F008F0EAC780E50E94352C8823DD
:1040900031F00E94772C8C0197FF03C0DFC70DE041
:1040A00010E0E4EAF2E0819191918017910709F420
:1040B000D5C722E0EE3FF207B1F761E0802F0E9402
:1040C0000C446E2D802F0E94DE43B701802F0E948A
:1040D000CCB80930110509F0C1C7F092B709E092D8
:1040E000B609BCC78091951090919610019709F080
:1040F000B5C782E090E090939610809395100E944F
:10410000CDB960939F107093A0108093A1109093ED
:10411000A210A4C70E945337A1C788E690E00E946E
:10412000C83081119BC78091F50983FF01C096C7F4
:1041300090917C0480915309981390C783E50E9465
:10414000352C882309F48AC70E948F2C0E944ECDFB
:104150007093880F6093870F0E94F0B60E948F2C97
:1041600020E030E04AEA52E40E94E0C718163CF032
:104170000E94533760E089E194E00E949C700E94A5
:104180008F2C2091890F30918A0F40918B0F509185
:104190008C0F0E9430CE18160CF060C760E089E0EA
:1041A00094E00E949C705AC78EE40E94352C8823AC
:1041B00009F454C70E9430BA60937804709379046C
:1041C00080937A0490937B0449C783E50E94352C41
:1041D000882319F00E94482C01C080E08093F509E3
:1041E0000CE41BE0F8018491811103C008E314E0A2
:1041F00005C00E94E6B50F5F1F4FF4CFF801849110
:10420000882329F00E94E6B50F5F1F4FF7CF8091FA
:10421000F509811103C004E314E032C09AE2C92E0B
:1042200094E0D92EE12CF12C20E08091F50990E06A
:104230000E2C02C0959587950A94E2F780FF15C071
:10424000BB24B394B20E222319F08CE20E94E6B58F
:10425000F60105911491F8018491882329F00E94B8
:10426000E6B50F5F1F4FF7CF2B2DFFEFEF1AFF0AB9
:1042700032E0C30ED11C45E0E416F104B1F609C0EA
:10428000F8018491882329F00E94E6B50F5F1F4F43
:10429000F7CF8AE00E94E6B5E1C610925702DEC66B
:1042A00083E50E94352C811103C00CE41BE00BC098
:1042B0000E94482C809385028D3308F4CFC68CE38E
:1042C00080938502CBC6F8018491882329F00E944F
:1042D000E6B50F5F1F4FF7CF4091850250E060E0D9
:1042E00070E088E494E00E945C308AE00E94E6B5C9
:1042F000B5C68091F50983FDB1C683E50E94352CD2
:10430000882309F4ABC60E948F2C0E944ECD709377
:10431000B9096093B8090E947AAEA0C689E690E018
:104320000E94C83081110FC00FE414E0F80184919D
:10433000882329F00E94E6B50F5F1F4FF7CFE0D723
:104340008AE00E94E6B51092FD091092FC0926C78A
:104350000E94435F83C60E94A25D80C683E50E94DF
:10436000352C882321F00E9423BA8C0102C00FEF64
:1043700010E080E50E94352C882319F00E9423BAB2
:1043800002C080E090E098010F3F110519F010F095
:104390002FEF30E0892B09F061C63093B7092093E5
:1043A000B6095CC680E50E94352C811105C01092CB
:1043B000B7091092B60952C60E9423BA892B09F098
:1043C0004DC6F5CF269A2E9881E08093930260E047
:1043D00082E594E00E949C700E94C2703FC60E94D9
:1043E000CAAE0E94C4B50E94E68D1092B709109221
:1043F000B60968EE73E080E090E00E9495B9269AD5
:104400002E9A1092930260E083E694E00E949C70E2
:104410000E94C27023C610928E0420C681E0809351
:104420008E041CC683E50E94352C882399F00E94D7
:104430008F2C20E030E04AE754E40E9445C80E94F7
:1044400053CD609386027093870280938802909385
:10445000890204C688E50E94352C811169C689E568
:104460000E94352C811164C68AE50E94352C811189
:104470005FC685E40E94352C81115AC60E94C4B5DE
:104480000E94E68DEBC583E50E94352C882309F454
:10449000E5C50E948F2C20E030E04AE754E40E94FA
:1044A00045C80E9453CD6093020A7093030A80931B
:1044B000040A9093050AD2C5D4018D914D010E9442
:1044C000352C882309F45EC0B3E03B1254C00E942F
:1044D0008F2C2B013C0120E030E040EA51E40E94A7
:1044E000E0C787FF41C0A3019201F801608171819B
:1044F000828193810E94E6CC6B017C019B01AC011F
:104500006091A2097091A3098091A4099091A509D5
:104510000E9445C86093A2097093A3098093A409DF
:104520009093A509A7019601D5016D917D918D917B
:104530009C910E9445C8F5016083718382839383B7
:10454000AAA1BBA16D917D918D919C910E94E4C720
:10455000A70196010E9445C80E9453CDEAA1FBA184
:104560006083718382839383D8014D925D926D92B3
:104570007C92139707C00E948F2CF801608371838F
:104580008283938333940C5F1F4FF4E0AF0EB11C12
:104590002AA13BA12C5F3F4F3BA32AA334E0331257
:1045A0008BCF0E941F9A5AC5F8018491882309F481
:1045B00055C50E94E6B50F5F1F4FF6CF0E94EA5C1B
:1045C0004DC581E0809319028093F00947C50E9490
:1045D0003E8944C583E50E94352C8823F9F00E946A
:1045E000772C8230C0F003E11BE0F8018491811147
:1045F00003C009E315E005C00E94E6B50F5F1F4F39
:10460000F4CFF8018491882309F428C50E94E6B507
:104610000F5F1F4FF6CF813009F444C088E40E9439
:10462000352C882391F00E94772C8A3A91053CF032
:104630008530F1E09F072CF084E091E002C08AEA27
:1046400090E0909369098093680986E40E94352C74
:10465000882381F00E94772C8F3F910519F014F088
:104660008FEF90E097FF02C080E090E090936B099D
:1046700080936A0982E40E94352C882309F4EEC4F1
:104680000E94772C8530910534F0883891052CF004
:1046900087E890E002C085E090E0909367098093FE
:1046A0006609DCC488E40E94352C882391F00E94BE
:1046B000772C8A3A91053CF0853021E092072CF066
:1046C00084E091E002C08AEA90E090936F098093C1
:1046D0006E0986E40E94352C882381F00E94772C95
:1046E0008F3F910519F014F08FEF90E097FF02C013
:1046F00080E090E0909371098093700982E40E94B9
:10470000352C882309F4AAC40E94772C85309105A2
:1047100034F0883891052CF087E890E002C085E0FD
:1047200090E090936D0980936C0998C488EC90E0B8
:104730000E94C830811192C484E40E94352C8823E1
:1047400009F48CC40E948F2C6B017C0111E020E0E5
:1047500030E0A9010E94E0C7811101C010E0109370
:104760002D0F20E030E0A901C701B6010E94E0C78B
:10477000882309F446C000917C0410E00E948F2C2D
:10478000000F111F000F111FF801EC56FD4F608341
:1047900071838283938320E030E0A90160919402C9
:1047A0007091950280919602909197020E94E0C7C5
:1047B00081110CC080E090E0A0EEBFE380939402F2
:1047C00090939502A0939602B093970220E030E078
:1047D000A901609198027091990280919A0290913A
:1047E0009B020E94E0C781110CC080E090E0A0EE27
:1047F000BFE38093980290939902A0939A02B0939A
:104800009B020E94B7892AC4F0EAEF2EF2E0FF2E45
:104810000AE719E0D7018D917D010E94352C88238C
:1048200049F00E948F2C0E9453CDF8016083718360
:10483000828393830C5F1F4FF9E00A381F0751F7FB
:104840000E94E6990BC40C5F1F4FF9E0023A1F0764
:1048500009F404C4D7018D917D010E94352C882371
:1048600091F30E948F2CF80160837183828393837C
:10487000EACF83E5FAD78823D9F00E948F2CAB01C9
:10488000BC014093AE095093AF096093B009709397
:10489000B10940937209509373096093740970933E
:1048A000750985EB95E00E9478308AE00E94E6B5B4
:1048B00080E5DBD7882399F00E948F2CAB01BC01E7
:1048C0004093AE095093AF096093B0097093B1095A
:1048D00088E995E00E9478308AE00E94E6B582E59A
:1048E000C4D7882399F00E948F2CAB01BC01409360
:1048F000760950937709609378097093790989E76D
:1049000095E00E9478308AE00E94E6B584E5ADD754
:10491000882309F4A3C30E948F2CAB01BC014093F0
:1049200072095093730960937409709375098BE54C
:1049300095E00E9478308AE00E94E6B58FC383E557
:1049400094D7882349F0EBD760938E0970938F0931
:10495000809390099093910984E587D7882349F043
:10496000DED760938A0970938B0980938C099093AA
:104970008D0982E47AD7882349F0C6D76093F1097C
:104980007093F2098093F3099093F40988E56DD749
:10499000882349F0C4D76093AA097093AB09809328
:1049A000AC099093AD098AE560D7882349F0B7D761
:1049B0006093A6097093A7098093A8099093A90909
:1049C00085E453D7882309F449C3A9D76093A20982
:1049D0007093A3098093A4099093A5093FC3D701BD
:1049E0008D917D0142D7882329F099D7AB01BC0175
:1049F000C801FFD60F5F1F4F0330110581F70E94DA
:104A000044300E94EA5C2AC383E52FD7882309F447
:104A100025C36DD790935D0280935C021FC38DED1B
:104A200090E00E94C830811119C383E51ED7882306
:104A300009F414C300917C0410E059D7000F111F32
:104A4000F801E85AFD4F9183808308C380E50DD7B4
:104A5000882309F403C34BD78C0183E506D7882349
:104A600019F045D77C0103C0EE24EA94FE2CC7015F
:104A70000196039708F0F2C2E4EAF2E08EEF92E0CA
:104A8000219131910217130709F4E8C28E179F078D
:104A9000B9F717FDE3C20E94C4B5D02E60E0802FA5
:104AA0000E940C44BFEFEB16FB0631F0EA94EF28AE
:104AB00071F000E010E00DC0802F0E94B64331E09D
:104AC00020E0892B09F030E0032F122F02C001E013
:104AD00010E08D2D0E94B6438017910709F4BEC2E5
:104AE0000E94438EF6CF83E5C0D6882319F00E943A
:104AF00023BA02C084E091E099A388A380E5B5D6EB
:104B0000882349F00E9423BA8938F3E19F0728F0EF
:104B100088E893E102C088EE93E09A838983BE011E
:104B2000605E7F4FCE0101960E94963797C285E462
:104B30009CD681110EC080E598D6882389F0EFD6E7
:104B4000609363027093640280936502909366029F
:104B500007C0CDD61816190674F703E11BE08AC00A
:104B600089E483D6882379F0DAD62CE933E549E461
:104B70005EE30E9445C8609315027093160280930D
:104B800017029093180284E470D6882379F0C7D670
:104B90002CE933E549E45EE30E94E6CC60936702CA
:104BA000709368028093690290936A020E9446B5EE
:104BB0000CE41BE0F8018491811103C005EE15E0BF
:104BC00005C00E94E6B50F5F1F4FF4CFF801849136
:104BD000882329F00E94E6B50F5F1F4FF7CF609141
:104BE000630270916402809165029091660242E0D6
:104BF0000E9481B601EE15E0F8018491882329F026
:104C00000E94E6B50F5F1F4FF7CF2CE933E549E46B
:104C10005EE36091150270911602809117029091E7
:104C200018020E94E6CC42E00E9481B60DED15E02C
:104C3000F8018491882329F00E94E6B50F5F1F4F89
:104C4000F7CF2CE933E549E45EE3609167027091A8
:104C500068028091690290916A020E9445C842E010
:104C60000E9481B68AE00E94E6B5F8C10E94E6B5CE
:104C70000F5F1F4FF80184918111F8CF02EE13E00E
:104C8000D8018D918D01882319F00E94E6B5F8CFE7
:104C90008AE00E94E6B5E2C183E5E7D5082F8823C4
:104CA00099F03DD660938A0270938B0280938C02B8
:104CB00090938D0211E020E030E0A9010E94E0C74E
:104CC000811110E01093300A80E5CFD5182F88238A
:104CD000B9F020E030E0A90160918A0270918B0266
:104CE00080918C0290918D020E94E0C7882329F068
:104CF000CFD511E0811101C010E01093300AAEC190
:104D00000111ACC10CE41BE0F8018491882329F067
:104D10000E94E6B50F5F1F4FF7CF61E070E08EEFA6
:104D200095E00E94AF3020E030E040E05FE360912A
:104D30008A0270918B0280918C0290918D020E9468
:104D40000ACC0E944ECD8DEE95E00E94AF3009EE68
:104D500015E0F8018491882309F480C10E94E6B52A
:104D60000F5F1F4FF6CF0E944B5978C10E94C4B508
:104D700075C183E57AD5882309F470C1E0917D047B
:104D8000F0917E048181DF01129621E030E08032D3
:104D900021F42F5F3F4F8D91FACF8D3211F08B327E
:104DA00031F42F5F3F4FDF01A20FB31F8C918E3282
:104DB00019F4E20FF31F818180538A3008F4DEC1B9
:104DC0004DC124E23FE03BA72AA78CEFA82E88E044
:104DD000B82E90EF892E98E0992E20EDE22E28E053
:104DE000F22E3FE7232E34E0332E43E052E05BA364
:104DF0004AA34AE5C42E49E1D42E00E010E0AAA55A
:104E0000BBA58D91BBA7AAA7882309F49CC0F70175
:104E10004080518062807380AAA1BBA12D913D91F9
:104E20004D915C91F10160817181828193810E9439
:104E30000ACC20E030E040E05FE30E9445C89B01DF
:104E4000AC01C301B2010E9430CE181654F4F60131
:104E500085919591A591B491E82F792F6A2F8B2F89
:104E600004C0E0E070E060E080E0D5012D913D916C
:104E70004D915C912EA33FA348A759A72E2F372F02
:104E8000462F582F6EA17FA188A599A50E940ACC14
:104E9000F40120813181428153810E940ACC9B011F
:104EA000AC01C301B2010E9409CC2B013C0120E0FE
:104EB00030E040EA51EC0E9430CE181654F420E065
:104EC00030E040EA51E4C301B2010E94E0C787FD2F
:104ED00003C003E11BE011C0A30192016EA17FA1F9
:104EE00088A599A50E9409CCAB01BC01C80181D459
:104EF0002AC00E94E6B50F5F1F4FF801849181110F
:104F0000F8CF00E316E0F8018491882329F00E948D
:104F1000E6B50F5F1F4FF7CF61E082E296E00E9497
:104F20009C700E94353B88E290E09A83898388ECEC
:104F300090E099A388A3BE016F5F7F4FCE0180965A
:104F40000E9496378BC00F5F1F4FF4E0AF0EB11C6D
:104F500024E0820E911C34E0E30EF11C44E0240EA8
:104F6000311C8AA19BA104969BA38AA394E0C90E3D
:104F7000D11C0330110509F042CF0E9444300E9439
:104F8000EA5C60E081E196E00E949C7083E992E037
:104F900099A388A308EC10E01A830983BE01605E20
:104FA0007F4FCE0101960E9496378AEB92E099A33B
:104FB00088A31A830983BE01605E7F4FCE010196EC
:104FC0000E9496374BC00E94C2A748C00E94277813
:104FD00045C00E94C27642C083E547D4982F8823FB
:104FE00021F056D491E0811190E0892F0E94E47263
:104FF00035C081E080939C021092D10983E535D4BD
:10500000882309F4C8C044D4811128C0C4C00093C7
:1050100053090CE41BE0F8018491811103C00EE4F4
:1050200016E005C00E94E6B50F5F1F4FF4CFF801F0
:105030008491882329F00E94E6B50F5F1F4FF7CFB8
:105040006091530970E080E090E00E945EB68AE0D3
:105050000E94E6B503C02B961FAE2B971092FD0958
:105060001092FC092B96FFAD2B97F1112FC00CE489
:105070001BE0F8018491811103C003E616E005C02E
:105080000E94E6B50F5F1F4FF4CFF801849188238B
:1050900029F00E94E6B50F5F1F4FF7CF00919804EB
:1050A00010919904D8018D918D01811103C000E602
:1050B00016E003C00E94E6B5F5CFF801849188237D
:1050C00029F00E94E6B50F5F1F4FF7CF0E948C9129
:1050D00065C081E090E09093FD098093FC091092F7
:1050E0000D0910920C090C94521E0E9430BAAB01AB
:1050F000BC014093211350932213609323137093A8
:10510000241380E792E10E945561A8CF0E9430BA33
:10511000AB01BC01409321135093221360932313DE
:105120007093241380E792E10E9455610C944F1F05
:105130000E94C4B588E599D3882319F05F9A10922C
:105140000D0589E592D3882319F08A9A10920E05ED
:105150008AE58BD3882351F09FB7F894809108019A
:105160008160809308019FBF10920F0585E47DD375
:10517000882309F473CF129A479A70CF89D39091FC
:105180004E10882321F0916090934E1067CF9E7F40
:1051900090934E1063CF0E94AA9160CFC659DF4F03
:1051A0000FB6F894DEBF0FBECDBFDF91CF911F9138
:1051B0000F91FF90EF90DF90CF90BF90AF909F90B6
:1051C0008F907F906F905F904F903F902F900895B9
:1051D00020910E0930E0F901E05FFA4F80832F5FE4
:1051E0003F4F2370332720930E098091B2068F5FC3
:1051F0008093B2060895089580E090E00895FF92AC
:105200000F931F93CF93DF93EC01F62E03E11BE086
:10521000F8018491882329F00E94E6B50F5F1F4FA3
:10522000F7CFFE018491882321F00E94E6B52196F4
:10523000F8CF6091F8097091F9098091FA0990917D
:10524000FB090E945EB68AE00E94E6B5F1100E945A
:10525000AA911092FB041092FA04DF91CF911F9152
:105260000F91FF9008950F931F93CF93DF93EC015D
:105270000E94CDB90E811F81288539850115110540
:105280002105310559F52C852223A9F13A852150B4
:105290002C8721E0230F2A874D85241301C01A860D
:1052A000FE0124E0329FE00DF11D112406851785D3
:1052B000208931890A831B832C833D83DC01CB0148
:1052C000800F911FA11DB11D8E839F83A887B98771
:1052D0008C819D81892B79F0409A0DC0DC01CB0136
:1052E000801B910BA20BB30BB7FD05C040981E822B
:1052F0001F8218861986DF91CF911F910F91089513
:10530000CF93DF93C8E5D8E0FE018491882321F094
:105310000E94E6B52196F8CF6091890F70918A0FAF
:1053200080918B0F90918C0F41E00E9481B6C5E572
:10533000D8E0FE018491882321F00E94E6B52196F1
:10534000F8CF6091870F7091880F072E000C880BA3
:10535000990B0E94E6C741E00E9481B6C1E5D8E002
:10536000FE018491882321F00E94E6B52196F8CFB2
:10537000609108097091090980910A0990910B09BF
:1053800041E00E9481B6CEE4D8E0FE0184918823FA
:1053900021F00E94E6B52196F8CF6091B80970918E
:1053A000B909072E000C880B990B0E94E6C741E053
:1053B0000E9481B6CAE4D8E0FE018491882321F0DE
:1053C0000E94E6B52196F8CFE0917C04F0E0E75C1E
:1053D000F04F608170E080E090E00E945EB6C5E42E
:1053E000D8E0FE018491882321F00E94E6B5219641
:1053F000F8CF6091380F70E080E090E0DF91CF91BE
:105400000C945EB680E1E0EDF8E0A6E0BAE0019031
:105410000D928A95E1F7089580E1E6E0FAE0A0EDCB
:10542000B8E001900D928A95E1F708958F929F92CE
:10543000AF92BF92CF92DF92EF92FF920F931F93A2
:1054400020E030E040E752E40E94E6CC4B015C01F2
:10545000E6E0FAE0E084F184028513852481358159
:10546000468157816081718182819381E0915309E6
:10547000EF93E2E1CE2EEAE0DE2E0E94167C0F9042
:105480001F910F91FF90EF90DF90CF90BF90AF9062
:105490009F908F9008954F925F926F927F928F921C
:1054A0009F92AF92BF92CF92DF92EF92FF920F93B3
:1054B0001F93CF93DF937901409081025090820235
:1054C0006090830270908402EC01CC0FDD1FCC0F42
:1054D000DD1FFE01E053F74F4083518362837383E6
:1054E00020E030E0A901B801C7010E94E0C78111A6
:1054F00008C0FE01E859FC4F00811181A281E381BF
:1055000002C0AE2DEF2DA8016A2F7E2F409381029D
:1055100050938202609383027093840220E030E013
:1055200040E752E4B8018A2F9E2F0E94E6CC4B013F
:105530005C01E090D808F090D9080091DA08109149
:10554000DB082091D4083091D5084091D6085091BD
:10555000D7086091D0087091D1088091D2089091BD
:10556000D308E0915309EF93ECEDCE2EE8E0DE2E68
:105570000E94167C0E94C4B5409281025092820221
:1055800060928302709284020F90DF91CF911F91FD
:105590000F91FF90EF90DF90CF90BF90AF909F90D2
:1055A0008F907F906F905F904F9008958F929F9211
:1055B000AF92BF92CF92DF92EF92FF920F931F9321
:1055C00020E030E040E752E4609181027091820275
:1055D00080918302909184020E94E6CC4B015C0191
:1055E000E0EDF8E0E084F1840285138524813581C3
:1055F000468157816081718182819381E091530955
:10560000EF93ECEDCE2EE8E0DE2E0E94167C0F909C
:105610001F910F91FF90EF90DF90CF90BF90AF90D0
:105620009F908F9008952F923F924F925F926F922A
:105630007F928F929F92AF92BF92CF92DF92EF9222
:10564000FF920F931F93CF93DF932B013C014901EE
:105650005A01C0908102D0908202E0908302F090C3
:10566000840280E090E0A1E6B5E48093810290930B
:105670008202A0938302B0938402C0EDD8E080E060
:1056800090E0A0E1B1E488879987AA87BB878EDF85
:105690008CEF282E88E0382EF10120813181428163
:1056A0005381C301B2010E940ACC00EF18E0F80157
:1056B00020813181428153810E940ACC68837983A1
:1056C0008A839B83F1012481358146815781C501FD
:1056D000B4010E940ACCF8012481358146815781AA
:1056E0000E940ACC6C837D838E839F835FDF20E0E2
:1056F00030E040E850E4F101608571858285938552
:105700000E940ACCF80120853185428553850E948C
:105710000ACC688779878A879B8748DFC092810295
:10572000D0928202E0928302F0928402DF91CF91C4
:105730001F910F91FF90EF90DF90CF90BF90AF90AF
:105740009F908F907F906F905F904F903F902F90A1
:105750000C94C4B5CF92DF92EF92FF920F931F93F8
:10576000CF93DF93EC01CC0FDD1FCC0FDD1FFE01CB
:10577000E450F74F20E030E0A9016081718182811F
:1057800093810E940ACCFE01E051F74F20813181C4
:10579000428153810E940ACC6B017C01FE01E150E1
:1057A000F84F25913591459154918E0101581B4F29
:1057B0000E940ACCF8016083718382839383FE0187
:1057C000ED50F84F2591359145915491CD5FDD4FC6
:1057D000C701B6010E940ACC688379838A839B83C0
:1057E000DF91CF911F910F91FF90EF90DF90CF90BD
:1057F00008958F929F92AF92BF92EF92FF920F9374
:105800001F93CF93DF938C014A015B01EC01CC0F16
:10581000DD1FCC0FDD1FCE018053974F7C01C4509C
:10582000D74F288139814A815B81C501B4010E942B
:1058300009CCF70120813181428153810E940ACC39
:10584000F701608371838283938388829982AA821D
:10585000BB82C801DF91CF911F910F91FF90EF9014
:10586000BF90AF909F908F9075CF682F880F770B68
:1058700080919004909191040E947ECF9C0190931E
:105880007E0480937D0481E0232B09F480E0089559
:1058900080917D0490917E044AE050E060E070E0E9
:1058A00001960E9434C597FD1EC080917D049091A1
:1058B0007E044AE050E060E070E001960E9434C54A
:1058C0006F3F71058105910509F07CF480917D049D
:1058D00090917E044AE050E060E070E001960E9402
:1058E00034C5862F089580E008958FEF0895809144
:1058F0007D0490917E044AE050E060E070E0019603
:105900000E9434C5CB01089580917D0490917E045E
:105910004AE050E060E070E001960C945FC60F939F
:105920001F93CF93DF93C0917D04D0917E0465E4F3
:1059300070E0CE010E947ECF8C01CE010196011550
:10594000110571F0F801108260E070E00E94E1C37F
:1059500025E4F8012083DF91CF911F910F910895E5
:1059600060E070E0DF91CF911F910F910C94E1C343
:10597000CF92DF92EF92FF920F931F93CF93DF931B
:1059800080EAE82E82E0F82E06E01AE0C0EDD8E0CA
:105990009BE8C92E94E0D92EF70181917F0165DF44
:1059A0008823D9F0BCDF9B01AC01F6018081811115
:1059B00004C080918F04882329F0688179818A81CD
:1059C0009B8103C060E070E0CB010E940ACCF8012B
:1059D000608371838283938309C088819981AA81BE
:1059E000BB81F80180839183A283B3830C5F1F4F37
:1059F0002496FFEFCF1ADF0A84EAE81682E0F80661
:105A000059F686E432DF882389F089DF20E030E030
:105A1000A9010E9430CE18164CF481DF60938102F8
:105A2000709382028093830290938402DF91CF91DE
:105A30001F910F91FF90EF90DF90CF900895CF933B
:105A4000FC0120812B33A1F02091B206243080F498
:105A5000C62FBC0180910E09F0E68F9FC001112472
:105A60008F5C9A4F0E9492CF8C2FB2DB81E001C0F5
:105A700080E0CF910895DF92EF92FF920F931F93F2
:105A8000CF93DF93CDB7DEB76E970FB6F894DEBF36
:105A90000FBECDBF6091BE087091BF086115710542
:105AA00049F14DE150E0CE0101967C010E9489C789
:105AB0001E8EF7018F010E191F09D190DD2019F0FC
:105AC0009AE0D912F7CFF701E00FF11F1082C7015A
:105AD0000E94C435882371F0DD20A9F00F5F1F4FAD
